{
  "address": "0xe7f1725E7734CE288F8367e1Bb143E90bb3F0512",
  "abi": [
    {
      "inputs": [
        {
          "internalType": "address",
          "name": "priceFeedAddress",
          "type": "address"
        }
      ],
      "stateMutability": "nonpayable",
      "type": "constructor"
    },
    {
      "inputs": [],
      "name": "NotEnoughFunds",
      "type": "error"
    },
    {
      "inputs": [],
      "name": "NotOwner",
      "type": "error"
    },
    {
      "inputs": [],
      "name": "WithdralFailed",
      "type": "error"
    },
    {
      "stateMutability": "payable",
      "type": "fallback"
    },
    {
      "inputs": [],
      "name": "MINIMUM_USD",
      "outputs": [
        {
          "internalType": "uint256",
          "name": "",
          "type": "uint256"
        }
      ],
      "stateMutability": "view",
      "type": "function"
    },
    {
      "inputs": [
        {
          "internalType": "address",
          "name": "",
          "type": "address"
        }
      ],
      "name": "addressToAmountFunded",
      "outputs": [
        {
          "internalType": "uint256",
          "name": "",
          "type": "uint256"
        }
      ],
      "stateMutability": "view",
      "type": "function"
    },
    {
      "inputs": [],
      "name": "fund",
      "outputs": [],
      "stateMutability": "payable",
      "type": "function"
    },
    {
      "inputs": [
        {
          "internalType": "uint256",
          "name": "",
          "type": "uint256"
        }
      ],
      "name": "funders",
      "outputs": [
        {
          "internalType": "address",
          "name": "",
          "type": "address"
        }
      ],
      "stateMutability": "view",
      "type": "function"
    },
    {
      "inputs": [],
      "name": "owner",
      "outputs": [
        {
          "internalType": "address",
          "name": "",
          "type": "address"
        }
      ],
      "stateMutability": "view",
      "type": "function"
    },
    {
      "inputs": [],
      "name": "priceFeed",
      "outputs": [
        {
          "internalType": "contract AggregatorV3Interface",
          "name": "",
          "type": "address"
        }
      ],
      "stateMutability": "view",
      "type": "function"
    },
    {
      "inputs": [],
      "name": "withdraw",
      "outputs": [],
      "stateMutability": "nonpayable",
      "type": "function"
    },
    {
      "stateMutability": "payable",
      "type": "receive"
    }
  ],
  "transactionHash": "0x436d7b0004c78f65b51a92f24f1eedcb3a0a660d0bf2918e7a7f0c4c0e428b66",
  "args": [
    "0x5FbDB2315678afecb367f032d93F642f64180aa3"
  ],
  "numDeployments": 1,
  "solcInputHash": "10ef1ed82f278f43bb9925f36138729f",
  "bytecode": "0x60a060405234801561001057600080fd5b50604051610f34380380610f3483398181016040528101906100329190610113565b3373ffffffffffffffffffffffffffffffffffffffff1660808173ffffffffffffffffffffffffffffffffffffffff1660601b8152505080600260006101000a81548173ffffffffffffffffffffffffffffffffffffffff021916908373ffffffffffffffffffffffffffffffffffffffff16021790555050610140565b600080fd5b600073ffffffffffffffffffffffffffffffffffffffff82169050919050565b60006100e0826100b5565b9050919050565b6100f0816100d5565b81146100fb57600080fd5b50565b60008151905061010d816100e7565b92915050565b600060208284031215610129576101286100b0565b5b6000610137848285016100fe565b91505092915050565b60805160601c610dcf610165600039600081816102cb01526105ff0152610dcf6000f3fe6080604052600436106100745760003560e01c8063741bef1a1161004e578063741bef1a1461010c5780638da5cb5b14610137578063b60d428814610162578063dc0d3dff1461016c57610083565b80633ccfd60b1461008d5780633e47d6f3146100a45780636b69a592146100e157610083565b36610083576100816101a9565b005b61008b6101a9565b005b34801561009957600080fd5b506100a26102c9565b005b3480156100b057600080fd5b506100cb60048036038101906100c69190610846565b6105b2565b6040516100d8919061088c565b60405180910390f35b3480156100ed57600080fd5b506100f66105ca565b604051610103919061088c565b60405180910390f35b34801561011857600080fd5b506101216105d7565b60405161012e9190610906565b60405180910390f35b34801561014357600080fd5b5061014c6105fd565b6040516101599190610930565b60405180910390f35b61016a6101a9565b005b34801561017857600080fd5b50610193600480360381019061018e9190610977565b610621565b6040516101a09190610930565b60405180910390f35b6802b5e3af16b18800006101e8600260009054906101000a900473ffffffffffffffffffffffffffffffffffffffff163461066090919063ffffffff16565b1015610220576040517f81b5ad6800000000000000000000000000000000000000000000000000000000815260040160405180910390fd5b6000339080600181540180825580915050600190039060005260206000200160009091909190916101000a81548173ffffffffffffffffffffffffffffffffffffffff021916908373ffffffffffffffffffffffffffffffffffffffff16021790555034600160003373ffffffffffffffffffffffffffffffffffffffff1673ffffffffffffffffffffffffffffffffffffffff16815260200190815260200160002081905550565b7f000000000000000000000000000000000000000000000000000000000000000073ffffffffffffffffffffffffffffffffffffffff163373ffffffffffffffffffffffffffffffffffffffff161461034e576040517f30cd747100000000000000000000000000000000000000000000000000000000815260040160405180910390fd5b60005b6000805490508110156103f357600060016000808481548110610377576103766109a4565b5b9060005260206000200160009054906101000a900473ffffffffffffffffffffffffffffffffffffffff1673ffffffffffffffffffffffffffffffffffffffff1673ffffffffffffffffffffffffffffffffffffffff1681526020019081526020016000208190555080806103eb90610a02565b915050610351565b50600067ffffffffffffffff81111561040f5761040e610a4b565b5b60405190808252806020026020018201604052801561043d5781602001602082028036833780820191505090505b506000908051906020019061045392919061073c565b503373ffffffffffffffffffffffffffffffffffffffff166108fc479081150290604051600060405180830381858888f1935050505015801561049a573d6000803e3d6000fd5b5060003373ffffffffffffffffffffffffffffffffffffffff166108fc479081150290604051600060405180830381858888f1935050505090508061050b576040517f3f24d0f000000000000000000000000000000000000000000000000000000000815260040160405180910390fd5b60003373ffffffffffffffffffffffffffffffffffffffff164760405161053190610aab565b60006040518083038185875af1925050503d806000811461056e576040519150601f19603f3d011682016040523d82523d6000602084013e610573565b606091505b50509050806105ae576040517f3f24d0f000000000000000000000000000000000000000000000000000000000815260040160405180910390fd5b5050565b60016020528060005260406000206000915090505481565b6802b5e3af16b188000081565b600260009054906101000a900473ffffffffffffffffffffffffffffffffffffffff1681565b7f000000000000000000000000000000000000000000000000000000000000000081565b6000818154811061063157600080fd5b906000526020600020016000915054906101000a900473ffffffffffffffffffffffffffffffffffffffff1681565b60008061066c8361069c565b90506000670de0b6b3a764000085836106859190610ac0565b61068f9190610b49565b9050809250505092915050565b6000808273ffffffffffffffffffffffffffffffffffffffff1663feaf968c6040518163ffffffff1660e01b815260040160a06040518083038186803b1580156106e557600080fd5b505afa1580156106f9573d6000803e3d6000fd5b505050506040513d601f19601f8201168201806040525081019061071d9190610c07565b5050509150506402540be400816107349190610c82565b915050919050565b8280548282559060005260206000209081019282156107b5579160200282015b828111156107b45782518260006101000a81548173ffffffffffffffffffffffffffffffffffffffff021916908373ffffffffffffffffffffffffffffffffffffffff1602179055509160200191906001019061075c565b5b5090506107c291906107c6565b5090565b5b808211156107df5760008160009055506001016107c7565b5090565b600080fd5b600073ffffffffffffffffffffffffffffffffffffffff82169050919050565b6000610813826107e8565b9050919050565b61082381610808565b811461082e57600080fd5b50565b6000813590506108408161081a565b92915050565b60006020828403121561085c5761085b6107e3565b5b600061086a84828501610831565b91505092915050565b6000819050919050565b61088681610873565b82525050565b60006020820190506108a1600083018461087d565b92915050565b6000819050919050565b60006108cc6108c76108c2846107e8565b6108a7565b6107e8565b9050919050565b60006108de826108b1565b9050919050565b60006108f0826108d3565b9050919050565b610900816108e5565b82525050565b600060208201905061091b60008301846108f7565b92915050565b61092a81610808565b82525050565b60006020820190506109456000830184610921565b92915050565b61095481610873565b811461095f57600080fd5b50565b6000813590506109718161094b565b92915050565b60006020828403121561098d5761098c6107e3565b5b600061099b84828501610962565b91505092915050565b7f4e487b7100000000000000000000000000000000000000000000000000000000600052603260045260246000fd5b7f4e487b7100000000000000000000000000000000000000000000000000000000600052601160045260246000fd5b6000610a0d82610873565b91507fffffffffffffffffffffffffffffffffffffffffffffffffffffffffffffffff821415610a4057610a3f6109d3565b5b600182019050919050565b7f4e487b7100000000000000000000000000000000000000000000000000000000600052604160045260246000fd5b600081905092915050565b50565b6000610a95600083610a7a565b9150610aa082610a85565b600082019050919050565b6000610ab682610a88565b9150819050919050565b6000610acb82610873565b9150610ad683610873565b9250817fffffffffffffffffffffffffffffffffffffffffffffffffffffffffffffffff0483118215151615610b0f57610b0e6109d3565b5b828202905092915050565b7f4e487b7100000000000000000000000000000000000000000000000000000000600052601260045260246000fd5b6000610b5482610873565b9150610b5f83610873565b925082610b6f57610b6e610b1a565b5b828204905092915050565b600069ffffffffffffffffffff82169050919050565b610b9981610b7a565b8114610ba457600080fd5b50565b600081519050610bb681610b90565b92915050565b6000819050919050565b610bcf81610bbc565b8114610bda57600080fd5b50565b600081519050610bec81610bc6565b92915050565b600081519050610c018161094b565b92915050565b600080600080600060a08688031215610c2357610c226107e3565b5b6000610c3188828901610ba7565b9550506020610c4288828901610bdd565b9450506040610c5388828901610bf2565b9350506060610c6488828901610bf2565b9250506080610c7588828901610ba7565b9150509295509295909350565b6000610c8d82610bbc565b9150610c9883610bbc565b9250827f7fffffffffffffffffffffffffffffffffffffffffffffffffffffffffffffff0482116000841360008413161615610cd757610cd66109d3565b5b817f80000000000000000000000000000000000000000000000000000000000000000583126000841260008413161615610d1457610d136109d3565b5b827f80000000000000000000000000000000000000000000000000000000000000000582126000841360008412161615610d5157610d506109d3565b5b827f7fffffffffffffffffffffffffffffffffffffffffffffffffffffffffffffff0582126000841260008412161615610d8e57610d8d6109d3565b5b82820290509291505056fea2646970667358221220bbf08b62f3333001cc52cd1e6bc996993b1373ce1661b7dc53f4bbf434f6c1d564736f6c63430008080033",
  "devdoc": {
    "kind": "dev",
    "methods": {},
    "version": 1
  },
  "userdoc": {
    "kind": "user",
    "methods": {},
    "version": 1
  },
  "storageLayout": {
    "storage": [
      {
        "astId": 65,
        "contract": "contracts/FundMe.sol:FundMe",
        "label": "funders",
        "offset": 0,
        "slot": "0",
        "type": "t_array(t_address)dyn_storage"
      },
      {
        "astId": 69,
        "contract": "contracts/FundMe.sol:FundMe",
        "label": "addressToAmountFunded",
        "offset": 0,
        "slot": "1",
        "type": "t_mapping(t_address,t_uint256)"
      },
      {
        "astId": 74,
        "contract": "contracts/FundMe.sol:FundMe",
        "label": "priceFeed",
        "offset": 0,
        "slot": "2",
        "type": "t_contract(AggregatorV3Interface)45"
      }
    ],
    "types": {
      "t_address": {
        "encoding": "inplace",
        "label": "address",
        "numberOfBytes": "20"
      },
      "t_array(t_address)dyn_storage": {
        "base": "t_address",
        "encoding": "dynamic_array",
        "label": "address[]",
        "numberOfBytes": "32"
      },
      "t_contract(AggregatorV3Interface)45": {
        "encoding": "inplace",
        "label": "contract AggregatorV3Interface",
        "numberOfBytes": "20"
      },
      "t_mapping(t_address,t_uint256)": {
        "encoding": "mapping",
        "key": "t_address",
        "label": "mapping(address => uint256)",
        "numberOfBytes": "32",
        "value": "t_uint256"
      },
      "t_uint256": {
        "encoding": "inplace",
        "label": "uint256",
        "numberOfBytes": "32"
      }
    }
  }
}